:020000040000FA
:0600000095EF08F012006C
:0600080004EF10F01200ED
:060018000CEF10F01200D5
:0E002000010044110000FB040000020000007B
:02002E00F80ECA
:100030008D16FC0E96160401A36BA769A869A96921
:10004000A66B010EAA6F1200D9CFE6FFE1CFD9FF50
:10005000E6520401A3511FE1040108BF79D1400E0B
:10006000E66EA60EE66E000EE66E7EEC06F0E5523B
:10007000E552E5520401010EA36FDF6A400EDF5C1A
:1000800001E366D1DF50EA6A600FE96E000EEA22F2
:10009000EF6ADF2AF3D70001A651080A01E157D120
:1000A0000F0A01E1FDD0010A01E1F4D0030A01E1E8
:1000B0009AD0010A4BE0070A3FE0010A01E048D16B
:1000C0000001020E606F3A0E616F010E626F636F86
:1000D000646B100E656F666B676B686B700E696F93
:1000E0006A6B6B6B030E6C6F6D6B6E6B300E6F6FAC
:1000F000706B0E0E716F726B736B746B010E756F9C
:10010000766B776B200E786F796B080E7A6F7B6B4E
:100110007C6B7D6B7E69020E7E6F7F6B806BF00E59
:10012000816F826B836B010E846F856B866B876931
:1001300004010CBF0DD1FDD00401010EAA6F000116
:10014000A75101E001D10401AA6BFED0800E040189
:10015000A46FA56B000EA45D020EA55922E2DAD9A8
:10016000A4C400F0A5C401F0026A060E1F0BA4C4CB
:10017000F6FFA5C4F7FF02C0F8FF06E0D890F636F8
:10018000F736F836E806FAE1940EA66EB50EE66E7E
:10019000A7D9E552D2EC06F00401A42B000EA5234A
:1001A000D9D7DF6ADF50A96EA868040EA66ED2EC1C
:1001B00006F0B50EE66E94D9E552DF50DF2A006EE8
:1001C000016A026AFF0E005C000E0158000E025820
:1001D000E9E3F66AF76A200EF86E940EA66EB50E85
:1001E000E66E7ED9B0D0300EA95D06E10401AA51B9
:1001F00001E0AAD02CD9A8D0F00EA95D02E14DD91A
:10020000A3D0E8680401A7190CE1E868A81909E17E
:10021000E868A91906E1A7C0A7F4A8C0A8F4A9C076
:10022000A9F4A70EE96E040EEA6EEE500001A719BC
:1002300001E08AD0EE50A81901E086D0EE50A9194D
:1002400001E082D001E080D0DF6A0001AB51DF5CC9
:1002500001E37AD03A0ED880AB55DF24EA6AAC0FBE
:10026000E96E000EEA22EF50E66E0401A651EA6A3A
:10027000AB0FE96E040EEA22E552E750EF6EA62BB3
:10028000A72B000EA823A923200EA65D01E17BD891
:10029000DF2ADBD778D80401A769A869A96955D0F6
:1002A0000001070E606FA7C061F0A8C062F0A9C08E
:1002B00063F0AAC064F0ABC065F0A7C0F6FFA8C0A9
:1002C000F7FFA9C0F8FFDF6A0001AB51DF5C2EE247
:1002D000F00EA95D11E1DF50A725A96EA66AA680E0
:1002E0003A0ED880AB55DF24EA6A660FE96E000E3D
:1002F000EA22A8CFEFFF18D00FD9300EF85C08E142
:10030000050EF65C01E1F568080EF65C01E1F568A2
:100310003A0E0001D880AB55DF24EA6A660FE96E19
:10032000000EEA22F5CFEFFFDF2ACED704010CBF83
:100330000FD0400EE66E600EE66E000EE66E44ECE8
:1003400006F0E552E552E5520401A36B01D005D851
:10035000E552E552E7CFD9FF12006092606A0001D2
:10036000A06BFF0E0001A05D0AE2E868E85004E01F
:10037000E80600D000D0FAD70001A02BF2D7FF008A
:100380000000000012000001A26BA6C400F0016A88
:10039000026A00500401A75DF66E01500401A859DD
:1003A000F76E02500401A959F86E1F0EF6140001F1
:1003B000A36FE00EF6160001A16B200E0001A15DF7
:1003C0001FE20001A35115E10401A6510FE0000155
:1003D000A251EA6AAB0FE96E040EEA22EF50F56E05
:1003E0000D000001A22B0401A60702D0F5680D0044
:1003F00004D0F5680D000001A3070001A12BDDD793
:100400000A00A40EA66EB50EE66E6AD8E55200018B
:10041000A16B0401A6510001A15D18E20001A251E7
:100420000001A125EA6AAB0FE96E040EEA22EF5043
:10043000E66E0001A151EA6AAB0FE96E040EEA22F2
:10044000E552E750EF6E0001A12BE3D71200A7C0E1
:10045000F6FFA8C0F7FFA9C0F8FF0001A46B0001D8
:10046000AB510001A45D18E23A0E0001D880AB55F3
:100470000001A425EA6AAC0FE96E000EEA22EF50F3
:10048000F56E0C00C40EA66EB50EE66E29D8E552C8
:1004900009000001A42BE3D712000001A56B0001A5
:1004A000AB510001A55D1BE20001A7510001A5258C
:1004B000A96E3A0E0001D880AB550001A525EA6A65
:1004C000AC0FE96E000EEA22EF50A86E040EA66E85
:1004D000B50EE66E05D8E5520001A52BE0D7120057
:1004E000D9CFE6FFE1CFD9FFF29EFE0EDB50B50873
:1004F00005E0030ED36E0300FED7FF00550EA76E76
:10050000AA0EA76EA682A6B2FED7A694E552E7CFA2
:0C051000D9FF12000400120009001200C4
:04051C00D9CFE6FF4E
:10052000E1CFD9FFE652615032E1659604010051F6
:100530003C0BE842E8420D0828E1180E021923E1BD
:10054000040E031920E1100E026F040E036FDF6A20
:10055000DF50006E016A080E005C000E015813E2C5
:10056000DF50EA6A180FE96E040EEA22EF50E66ED9
:10057000DF50EA6A100FE96E040EEA22E552E750F6
:10058000EF6EDF2AE5D711D80AD048D808D0040E7C
:10059000615C03E165965FD802D0000E01D0010EC8
:1005A000E552E552E7CFD9FF1200D9CFE6FFE1CF00
:1005B000D9FFE652040104BF046B0401F36BEB6B3B
:1005C000EC6BF16BF26B49EC04F0DF6ADF50006E0C
:1005D000016A010E005C000E01581AE20401EC51A0
:1005E00017E1F76ADF34FE0BF736F66E5E0EF6267D
:1005F000100EF7220900F5CF00F00800F5CF01F04A
:1006000004D001C0FAFF0050F96EFBDFDF2ADED70D
:10061000F6D8E552E552E7CFD9FF1200020E0401E9
:10062000EB5D0EE1AFD80401180E026F040E036FEC
:10063000080E016F00BD02D0C80E0BD0880E09D085
:1006400023D90401080E016F100E026F040E036F10
:100650008C0E006F1200040E0401F45D09E112C457
:1006600063FF6350000802E2050E01D0030EF46F31
:100670000401EB0510E111D8020E0401F35D03E162
:100680000401840E06D0040104BD02D0C80E01D0BE
:10069000880E046F120044EF04F0D9CFE6FFE1CFDB
:1006A000D9FF020EE1260401080EF15D000EF25999
:1006B0000DE2F1C4DEFFF2C4DDFFF35102E1010EF1
:1006C00003D0F30506E1020EF36F03D0080EDE6ED1
:1006D000DD6A040104930491010EDB500413DFCFA3
:1006E00005F4000EDB500401F15F010EDB50F25BFC
:1006F000180EEF6F040EF06F0401F5A31DD0D9CFD3
:10070000E9FFDACFEAFFEE50ED1032E0EDC4F6FF7C
:10071000EEC4F7FF0800F550EFC4E9FFF0C4EAFFAC
:10072000EF6E0401EF2B000EF023ED2BEE23DF061E
:10073000010EE5E2DB06E3D7D9CFE9FFDACFEAFF26
:10074000EE50ED1015E0EDC4E9FFEEC4EAFFEF5006
:10075000EFC4E9FFF0C4EAFFEF6E0401EF2B000ED7
:10076000F023ED2BEE23DF06010EE6E2DB06E4D7F5
:10077000020EE15C02E2E16AE552E16EE552E7CF8A
:10078000D9FF1200D9CFE6FFE1CFD9FF020EE12653
:10079000030E04010015E76E010EE7CFDBFF01C475
:1007A000DFFFDE500401F127DD50F223180EED6F5C
:1007B000040EEE6FD9CFE9FFDACFEAFFEE50ED106D
:1007C00014E0EDC4E9FFEEC4EAFFEF50EFC4E9FF27
:1007D000F0C4EAFFEF6EEF2B000EF023ED2BEE23BB
:1007E000DF06010EE7E2DB06E5D7020EE15C02E27E
:1007F000E16AE552E16EE552E7CFD9FF1200609859
:100800000401EC510BE10401080E016F100E026FA0
:10081000040E036F840E006F040123D0040110AF97
:1008200022D00401F1510401165D0401F2510401CA
:10083000175904E216C4F1F417C4F2F42EDF0401D0
:10084000010EEB6F0401080E016F100E026F040E13
:10085000036F800E006F0401180E066F040E076F01
:10086000C80E046F12000401020EEB6F0401056B49
:10087000C80E046F0401080E016F180E026F040EFB
:10088000036FC80E006F12000401EB6B0401046BD0
:02089000120054
:0E08920004011051600BE842E842E842E842DF
:1008A000E842000901E012001151070A4CE00B0A6E
:1008B0004AE0070A3BE0010A27E00B0A23E0020AAC
:1008C00021E0030A1DE0080A12E0010A0EE00F0A07
:1008D0000AE0030A01E012000401010EEC6F0401BA
:1008E000040EF46F1200A4EF04F0FBEF04F0040117
:1008F000010EEC6F0401F60EED6F040EEE6F10D0DA
:1009000022EF05F06DEF05F00401010EEC6F04011C
:1009100014510401ED6FEE6BF70EED27040EEE237C
:100920000401F5930401010EF16F12000401010EA0
:10093000EC6F04011451EA6AF70FE96E040EEA2223
:1009400012C4EFFF12001200800E0401105D52E18C
:100950001351030A30E0010A0CE0030A49E10401E3
:10096000010EEC6F04019E0EED6F0F0EEE6F120E76
:100970003CD00401010EEC6F04011251F66EF76ACF
:10098000D890F636F736540EF626100EF7220900E8
:10099000F5CFEDF40A00F5CFEEF4020E0401F76A8C
:1009A000ED25F66EEE51F7220900F5CFF1F40A00BD
:1009B000F5CFF2F41DD00401010EEC6F04011251C9
:1009C000F66EF76AD890F636F736580EF626100E01
:1009D000F7220900F5CFEDF40A00F5CFEEF4EDC4EF
:1009E000F6FFEEC4F7FF0800F5500401F16FF26B5B
:1009F0000401F58312000401010EEC6F0F0EE66E88
:100A00006B0EE66E0F0EE66E44EC07F0E552E55213
:100A1000E552010EE66EF70EE66E040EE66E44EC4D
:100A200007F0E552E552E55212C4F6F40401125102
:100A300004E10401050EF46F12000401060EF46FC8
:100A40002FEF06F00401186B196B040110511F0BF6
:100A5000020A13E0030A0DE0010A31E10401010E6C
:100A6000EC6F040118810401F5A129D00401188359
:100A700026D00401010EEC6F22D00401010EEC6FB0
:100A8000040114510F0B080DF350016A000F006EA2
:100A9000040E01221451800B01E0010E040DF350ED
:100AA00004010024EF6F000E0120F06FEFC4E9FF96
:100AB000EA6EEF50040B03E00401010E186F04010D
:100AC000EC050AE10401180EED6F040EEE6F04014F
:100AD000F5930401020EF16F12000401120510E1FA
:100AE00010511F0B00090CE10401010EEC6F030E05
:100AF0000401115D03E10401F58102D00401F591C7
:100B00000401125136E110511F0B020832E1145159
:100B10000F0B00092EE00401010EEC6F04011451CB
:100B20000F0B080DF350016A000F006E040E012236
:100B30001451800B01E0010E040DF3500401002458
:100B4000EF6F000E0120F06F030E0401115D02E152
:100B5000840E03D014AF07D0400EEFC4E9FFF0C4F9
:100B6000EAFFEF6E1200880EEFC4E9FFF0C4EAFF5F
:040B7000EF6E120012
:0C0B7400040110511F0B010801E01200E9
:100B8000145101E01200060E115D28E11351230AF1
:100B900023E0010A0FE0030A1FE10401020EEC6FDB
:100BA0000401F60505E10401C20EED6F0F0EEE6FB4
:100BB000090E0FD00401020EEC6F0401F60505E1E9
:100BC0000401370EED6F100EEE6F0401F60504E11F
:100BD0001D0E0401F16FF26B0401F5830401105145
:100BE000600BE842E842E842E842E842010801E0DE
:100BF000120011510B0A2BE0080A1BE0090A13E04E
:100C0000080A09E00B0A05E0080A01E012002DEFCE
:100C100006F02EEF06F00401020EEC6F0401F80E50
:100C2000ED6F040E0DD00401020EEC6F13C4F8F446
:100C300012000401020EEC6F0401F90EED6F040EB8
:100C4000EE6F0401F5930401010EF16F120004012F
:100C5000020EEC6F12C4F9F412001200120004012B
:100C6000FA6B1E0E6B6E0401400E096F200E0A6FA8
:100C7000040E0B6F880E086F0401600E0E6F040ED9
:100C80000F6F400E0C6F1200D9CFE6FFE1CFD9FFF6
:100C9000E652FC0EDB50400805E2400EF36EFC0EFF
:100CA000F3CFDBFFDF6AFC0EDB50DF5C19E2DF50C5
:100CB000E76EFD0EDBCFE9FFFE0EDBCFEAFFE7506C
:100CC000E926000EEA22EF50E66EDF50EA6A600F76
:100CD000E96E040EEA22E552E750EF6EDF2AE3D711
:100CE000FC0EDBCF0DF4400E04010C170C7D880EBA
:100CF0000C13E552E552E7CFD9FF1200D9CFE6FF3A
:100D0000E1CFD9FF0401FA6B040108BF30D0FC0E1B
:100D1000DBCF00F00951D880005403E2FC0E09C477
:100D2000DBFF0401FA6BFC0EDB50FA5D19E2FA51AD
:100D3000EA6A200FE96E040EEA22EF50E66EFA51DD
:100D4000E76EFD0EDBCFE9FFFE0EDBCFEAFFE750DB
:100D5000E926000EEA22E552E750EF6EFA2BE3D7C0
:100D60000401400E096F0817087D880E081304015E
:0A0D7000FA51E552E7CFD9FF120057
:060D7A0060A60CD8040184
:100D8000F40508E160BA06D0656A646A6480648824
:100D9000020EF46F1200606A646A60860401010E3C
:100DA000F46F12000401F45101E1120065B425D87A
:100DB00060B2120065B038D865B817D865BA24D8C3
:100DC000030E0401F45D01E212000401FD6B040E48
:100DD000FD5D0AE265A608D08EEC02F0000901E193
:100DE00065960401FD2BF3D7120064846598608238
:100DF000A494A3840300A39412006092649465A455
:100E000002D06594FCD712006AA00CD0800E0401B9
:100E1000005D07E1840E0401045D03E104018C0E12
:100E2000006F6A90659A1200676A656A9F0E666E27
:100E30007B0E646E636A0F0EE66E6B0EE66E0F0E2F
:100E4000E66E22D8E552E552E552160E6A6E65A6A8
:100E500005D0659600D000D00000F9D7609844EC2A
:100E600004F00401080E016F0401100E026F040E5D
:100E7000036F04018C0E006F0401F5910401F66B01
:100E80000401030EF46F1200D9CFE6FFE1CFD9FFC2
:100E9000FD0EDBCFE9FFFE0EDBCFEAFFFC0EDB50E1
:100EA00004E0EE6AFC0EDB06F9D7E552E7CFD9FF86
:020EB00012002E
:0E0EB200D9CFE6FFE1CFD9FF020EE126010EF7
:100EC000DB6A000EE66EE66A63EC08F0E552E55276
:100ED000DF6E660EDF5C0DE1DE52010EDD6E330E5D
:100EE000E66E000EE66EE66A30EC08F0E552E5527A
:100EF000E552010EDB5002E100EF10F017D80400BC
:100F00002DD830D8060E0401F45D05E16050020BC7
:100F100002E124EC00F0F3D7020EE15C02E2E16AA8
:100F2000E552E16EE552E7CFD9FF1200800E9B6ECD
:100F3000700ED36E100ED26ED2AEFED7B50EE96E25
:100F40000F0EEA6E900EEF6E140E626E0401F46BDB
:100F50000401F56B0401F66B17EF00F0BDEC06F031
:100F6000D2EF06F00401FB51FC1104E1100EFB6FFF
:100F7000270EFC6FFB07000EFC5B060E0401F45D00
:100F800002E28D8008D00401FB51FC1107E18D7055
:0E0F90008D50010B02E08D9212008D82120036
:020F9E0012013E
:100FA000000200000008D8043C0002000102000119
:100FB00009022900010100C03209040000020300F7
:100FC0000000092111010001221D000705810340D5
:100FD0000001070501034000010403090434034D27
:100FE000006900630072006F0063006800690070B0
:100FF00000200054006500630068006E006F006C04
:10100000006F0067007900200049006E0063002E29
:1010100000260348004900440020005500530042C8
:1010200000200042006F006F0074006C006F0061D0
:10103000006400650072000600FF0901A1011901AA
:101040002940150026FF00750895408100190129E7
:10105000409100C0B00FB00FD90FDD0F1110740B0D
:10106000D9CFE6FFDACFE6FFE1CFD9FFE2CFDAFF53
:10107000E652DF6AFF0EE76EFC0EDBCF00F0E750B2
:1010800000160050A96EFB0EDB50A86EA69EA69C13
:10109000A684F250800B01E0010EDF6EF29E550E29
:1010A000A76EAA0EA76EA682A6B2FED7DF50E8B042
:1010B000F28EE8A0F29EA694E552E552E5CFDAFF63
:0610C000E7CFD9FF12008A
:0A10C600D9CFE6FFDACFE6FFE1CF55
:1010D000D9FFE2CFDAFFFF0EE76EFC0EDBCF00F0A8
:1010E000FD0EDBCF01F0E7500016016A0050A96E3B
:1010F000A69CA69EA68000000000A85000D0E55245
:0A110000E5CFDAFFE7CFD9FF1200B8
:06110A00000EF36E00EE82
:1011100000F0080E01D81200EA6002D0EE6AFCD797
:0A112000F350E9601200EE6AFCD7FC
:06112A0013EE00F023EEBD
:1011300000F0F86A049CA1EC08F059EC07F0FBD72A
:0211400012009B
:02114200120099
:021144000000A9
:020000040030CA
:0100000021DE
:0100010008F6
:010002001FDE
:010003003EBE
:01000500D129
:010006008574
:00000001FF
